{
  "_format": "hh-sol-artifact-1",
  "contractName": "NFT",
  "sourceName": "contracts/NFT.sol",
  "abi": [
    {
      "inputs": [],
      "stateMutability": "nonpayable",
      "type": "constructor"
    },
    {
      "anonymous": false,
      "inputs": [
        {
          "indexed": true,
          "internalType": "address",
          "name": "owner",
          "type": "address"
        },
        {
          "indexed": true,
          "internalType": "address",
          "name": "approved",
          "type": "address"
        },
        {
          "indexed": true,
          "internalType": "uint256",
          "name": "tokenId",
          "type": "uint256"
        }
      ],
      "name": "Approval",
      "type": "event"
    },
    {
      "anonymous": false,
      "inputs": [
        {
          "indexed": true,
          "internalType": "address",
          "name": "owner",
          "type": "address"
        },
        {
          "indexed": true,
          "internalType": "address",
          "name": "operator",
          "type": "address"
        },
        {
          "indexed": false,
          "internalType": "bool",
          "name": "approved",
          "type": "bool"
        }
      ],
      "name": "ApprovalForAll",
      "type": "event"
    },
    {
      "anonymous": false,
      "inputs": [
        {
          "indexed": true,
          "internalType": "address",
          "name": "from",
          "type": "address"
        },
        {
          "indexed": true,
          "internalType": "address",
          "name": "to",
          "type": "address"
        },
        {
          "indexed": true,
          "internalType": "uint256",
          "name": "tokenId",
          "type": "uint256"
        }
      ],
      "name": "Transfer",
      "type": "event"
    },
    {
      "inputs": [
        {
          "internalType": "address",
          "name": "to",
          "type": "address"
        },
        {
          "internalType": "uint256",
          "name": "tokenId",
          "type": "uint256"
        }
      ],
      "name": "approve",
      "outputs": [],
      "stateMutability": "nonpayable",
      "type": "function"
    },
    {
      "inputs": [
        {
          "internalType": "address",
          "name": "owner",
          "type": "address"
        }
      ],
      "name": "balanceOf",
      "outputs": [
        {
          "internalType": "uint256",
          "name": "",
          "type": "uint256"
        }
      ],
      "stateMutability": "view",
      "type": "function"
    },
    {
      "inputs": [
        {
          "internalType": "uint256",
          "name": "tokenId",
          "type": "uint256"
        }
      ],
      "name": "getApproved",
      "outputs": [
        {
          "internalType": "address",
          "name": "",
          "type": "address"
        }
      ],
      "stateMutability": "view",
      "type": "function"
    },
    {
      "inputs": [
        {
          "internalType": "address",
          "name": "owner",
          "type": "address"
        },
        {
          "internalType": "address",
          "name": "operator",
          "type": "address"
        }
      ],
      "name": "isApprovedForAll",
      "outputs": [
        {
          "internalType": "bool",
          "name": "",
          "type": "bool"
        }
      ],
      "stateMutability": "view",
      "type": "function"
    },
    {
      "inputs": [
        {
          "internalType": "string",
          "name": "_tokenURI",
          "type": "string"
        }
      ],
      "name": "mint",
      "outputs": [
        {
          "internalType": "uint256",
          "name": "",
          "type": "uint256"
        }
      ],
      "stateMutability": "nonpayable",
      "type": "function"
    },
    {
      "inputs": [],
      "name": "name",
      "outputs": [
        {
          "internalType": "string",
          "name": "",
          "type": "string"
        }
      ],
      "stateMutability": "view",
      "type": "function"
    },
    {
      "inputs": [
        {
          "internalType": "uint256",
          "name": "tokenId",
          "type": "uint256"
        }
      ],
      "name": "ownerOf",
      "outputs": [
        {
          "internalType": "address",
          "name": "",
          "type": "address"
        }
      ],
      "stateMutability": "view",
      "type": "function"
    },
    {
      "inputs": [
        {
          "internalType": "address",
          "name": "from",
          "type": "address"
        },
        {
          "internalType": "address",
          "name": "to",
          "type": "address"
        },
        {
          "internalType": "uint256",
          "name": "tokenId",
          "type": "uint256"
        }
      ],
      "name": "safeTransferFrom",
      "outputs": [],
      "stateMutability": "nonpayable",
      "type": "function"
    },
    {
      "inputs": [
        {
          "internalType": "address",
          "name": "from",
          "type": "address"
        },
        {
          "internalType": "address",
          "name": "to",
          "type": "address"
        },
        {
          "internalType": "uint256",
          "name": "tokenId",
          "type": "uint256"
        },
        {
          "internalType": "bytes",
          "name": "_data",
          "type": "bytes"
        }
      ],
      "name": "safeTransferFrom",
      "outputs": [],
      "stateMutability": "nonpayable",
      "type": "function"
    },
    {
      "inputs": [
        {
          "internalType": "address",
          "name": "operator",
          "type": "address"
        },
        {
          "internalType": "bool",
          "name": "approved",
          "type": "bool"
        }
      ],
      "name": "setApprovalForAll",
      "outputs": [],
      "stateMutability": "nonpayable",
      "type": "function"
    },
    {
      "inputs": [
        {
          "internalType": "bytes4",
          "name": "interfaceId",
          "type": "bytes4"
        }
      ],
      "name": "supportsInterface",
      "outputs": [
        {
          "internalType": "bool",
          "name": "",
          "type": "bool"
        }
      ],
      "stateMutability": "view",
      "type": "function"
    },
    {
      "inputs": [],
      "name": "symbol",
      "outputs": [
        {
          "internalType": "string",
          "name": "",
          "type": "string"
        }
      ],
      "stateMutability": "view",
      "type": "function"
    },
    {
      "inputs": [],
      "name": "tokenCount",
      "outputs": [
        {
          "internalType": "uint256",
          "name": "",
          "type": "uint256"
        }
      ],
      "stateMutability": "view",
      "type": "function"
    },
    {
      "inputs": [
        {
          "internalType": "uint256",
          "name": "tokenId",
          "type": "uint256"
        }
      ],
      "name": "tokenURI",
      "outputs": [
        {
          "internalType": "string",
          "name": "",
          "type": "string"
        }
      ],
      "stateMutability": "view",
      "type": "function"
    },
    {
      "inputs": [
        {
          "internalType": "address",
          "name": "from",
          "type": "address"
        },
        {
          "internalType": "address",
          "name": "to",
          "type": "address"
        },
        {
          "internalType": "uint256",
          "name": "tokenId",
          "type": "uint256"
        }
      ],
      "name": "transferFrom",
      "outputs": [],
      "stateMutability": "nonpayable",
      "type": "function"
    }
  ],
  "bytecode": "0x60806040523480156200001157600080fd5b506040518060400160405280601781526020017f5061726164697365204e465420436f6c6c656374696f6e0000000000000000008152506040518060400160405280600381526020017f504e430000000000000000000000000000000000000000000000000000000000815250816000908051906020019062000096929190620000b8565b508060019080519060200190620000af929190620000b8565b505050620001cd565b828054620000c69062000197565b90600052602060002090601f016020900481019282620000ea576000855562000136565b82601f106200010557805160ff191683800117855562000136565b8280016001018555821562000136579182015b828111156200013557825182559160200191906001019062000118565b5b50905062000145919062000149565b5090565b5b80821115620001645760008160009055506001016200014a565b5090565b7f4e487b7100000000000000000000000000000000000000000000000000000000600052602260045260246000fd5b60006002820490506001821680620001b057607f821691505b60208210811415620001c757620001c662000168565b5b50919050565b612c4680620001dd6000396000f3fe608060405234801561001057600080fd5b50600436106100f55760003560e01c806370a0823111610097578063b88d4fde11610066578063b88d4fde14610284578063c87b56dd146102a0578063d85d3d27146102d0578063e985e9c514610300576100f5565b806370a08231146101fc57806395d89b411461022c5780639f181b5e1461024a578063a22cb46514610268576100f5565b8063095ea7b3116100d3578063095ea7b31461017857806323b872dd1461019457806342842e0e146101b05780636352211e146101cc576100f5565b806301ffc9a7146100fa57806306fdde031461012a578063081812fc14610148575b600080fd5b610114600480360381019061010f91906119bb565b610330565b6040516101219190611a03565b60405180910390f35b610132610412565b60405161013f9190611ab7565b60405180910390f35b610162600480360381019061015d9190611b0f565b6104a4565b60405161016f9190611b7d565b60405180910390f35b610192600480360381019061018d9190611bc4565b610529565b005b6101ae60048036038101906101a99190611c04565b610641565b005b6101ca60048036038101906101c59190611c04565b6106a1565b005b6101e660048036038101906101e19190611b0f565b6106c1565b6040516101f39190611b7d565b60405180910390f35b61021660048036038101906102119190611c57565b610773565b6040516102239190611c93565b60405180910390f35b61023461082b565b6040516102419190611ab7565b60405180910390f35b6102526108bd565b60405161025f9190611c93565b60405180910390f35b610282600480360381019061027d9190611cda565b6108c3565b005b61029e60048036038101906102999190611e4f565b6108d9565b005b6102ba60048036038101906102b59190611b0f565b61093b565b6040516102c79190611ab7565b60405180910390f35b6102ea60048036038101906102e59190611f73565b610a8d565b6040516102f79190611c93565b60405180910390f35b61031a60048036038101906103159190611fbc565b610ac9565b6040516103279190611a03565b60405180910390f35b60007f80ac58cd000000000000000000000000000000000000000000000000000000007bffffffffffffffffffffffffffffffffffffffffffffffffffffffff1916827bffffffffffffffffffffffffffffffffffffffffffffffffffffffff191614806103fb57507f5b5e139f000000000000000000000000000000000000000000000000000000007bffffffffffffffffffffffffffffffffffffffffffffffffffffffff1916827bffffffffffffffffffffffffffffffffffffffffffffffffffffffff1916145b8061040b575061040a82610b5d565b5b9050919050565b6060600080546104219061202b565b80601f016020809104026020016040519081016040528092919081815260200182805461044d9061202b565b801561049a5780601f1061046f5761010080835404028352916020019161049a565b820191906000526020600020905b81548152906001019060200180831161047d57829003601f168201915b5050505050905090565b60006104af82610bc7565b6104ee576040517f08c379a00000000000000000000000000000000000000000000000000000000081526004016104e5906120cf565b60405180910390fd5b6004600083815260200190815260200160002060009054906101000a900473ffffffffffffffffffffffffffffffffffffffff169050919050565b6000610534826106c1565b90508073ffffffffffffffffffffffffffffffffffffffff168373ffffffffffffffffffffffffffffffffffffffff1614156105a5576040517f08c379a000000000000000000000000000000000000000000000000000000000815260040161059c90612161565b60405180910390fd5b8073ffffffffffffffffffffffffffffffffffffffff166105c4610c33565b73ffffffffffffffffffffffffffffffffffffffff1614806105f357506105f2816105ed610c33565b610ac9565b5b610632576040517f08c379a0000000000000000000000000000000000000000000000000000000008152600401610629906121f3565b60405180910390fd5b61063c8383610c3b565b505050565b61065261064c610c33565b82610cf4565b610691576040517f08c379a000000000000000000000000000000000000000000000000000000000815260040161068890612285565b60405180910390fd5b61069c838383610dd2565b505050565b6106bc838383604051806020016040528060008152506108d9565b505050565b6000806002600084815260200190815260200160002060009054906101000a900473ffffffffffffffffffffffffffffffffffffffff169050600073ffffffffffffffffffffffffffffffffffffffff168173ffffffffffffffffffffffffffffffffffffffff16141561076a576040517f08c379a000000000000000000000000000000000000000000000000000000000815260040161076190612317565b60405180910390fd5b80915050919050565b60008073ffffffffffffffffffffffffffffffffffffffff168273ffffffffffffffffffffffffffffffffffffffff1614156107e4576040517f08c379a00000000000000000000000000000000000000000000000000000000081526004016107db906123a9565b60405180910390fd5b600360008373ffffffffffffffffffffffffffffffffffffffff1673ffffffffffffffffffffffffffffffffffffffff168152602001908152602001600020549050919050565b60606001805461083a9061202b565b80601f01602080910402602001604051908101604052809291908181526020018280546108669061202b565b80156108b35780601f10610888576101008083540402835291602001916108b3565b820191906000526020600020905b81548152906001019060200180831161089657829003601f168201915b5050505050905090565b60075481565b6108d56108ce610c33565b8383611039565b5050565b6108ea6108e4610c33565b83610cf4565b610929576040517f08c379a000000000000000000000000000000000000000000000000000000000815260040161092090612285565b60405180910390fd5b610935848484846111a6565b50505050565b606061094682610bc7565b610985576040517f08c379a000000000000000000000000000000000000000000000000000000000815260040161097c9061243b565b60405180910390fd5b60006006600084815260200190815260200160002080546109a59061202b565b80601f01602080910402602001604051908101604052809291908181526020018280546109d19061202b565b8015610a1e5780601f106109f357610100808354040283529160200191610a1e565b820191906000526020600020905b815481529060010190602001808311610a0157829003601f168201915b505050505090506000610a2f611202565b9050600081511415610a45578192505050610a88565b600082511115610a7a578082604051602001610a62929190612497565b60405160208183030381529060405292505050610a88565b610a8384611219565b925050505b919050565b600060076000815480929190610aa2906124ea565b9190505550610ab3336007546112c0565b610abf600754836112de565b6007549050919050565b6000600560008473ffffffffffffffffffffffffffffffffffffffff1673ffffffffffffffffffffffffffffffffffffffff16815260200190815260200160002060008373ffffffffffffffffffffffffffffffffffffffff1673ffffffffffffffffffffffffffffffffffffffff16815260200190815260200160002060009054906101000a900460ff16905092915050565b60007f01ffc9a7000000000000000000000000000000000000000000000000000000007bffffffffffffffffffffffffffffffffffffffffffffffffffffffff1916827bffffffffffffffffffffffffffffffffffffffffffffffffffffffff1916149050919050565b60008073ffffffffffffffffffffffffffffffffffffffff166002600084815260200190815260200160002060009054906101000a900473ffffffffffffffffffffffffffffffffffffffff1673ffffffffffffffffffffffffffffffffffffffff1614159050919050565b600033905090565b816004600083815260200190815260200160002060006101000a81548173ffffffffffffffffffffffffffffffffffffffff021916908373ffffffffffffffffffffffffffffffffffffffff160217905550808273ffffffffffffffffffffffffffffffffffffffff16610cae836106c1565b73ffffffffffffffffffffffffffffffffffffffff167f8c5be1e5ebec7d5bd14f71427d1e84f3dd0314c0f7b2291e5b200ac8c7c3b92560405160405180910390a45050565b6000610cff82610bc7565b610d3e576040517f08c379a0000000000000000000000000000000000000000000000000000000008152600401610d35906125a5565b60405180910390fd5b6000610d49836106c1565b90508073ffffffffffffffffffffffffffffffffffffffff168473ffffffffffffffffffffffffffffffffffffffff161480610db857508373ffffffffffffffffffffffffffffffffffffffff16610da0846104a4565b73ffffffffffffffffffffffffffffffffffffffff16145b80610dc95750610dc88185610ac9565b5b91505092915050565b8273ffffffffffffffffffffffffffffffffffffffff16610df2826106c1565b73ffffffffffffffffffffffffffffffffffffffff1614610e48576040517f08c379a0000000000000000000000000000000000000000000000000000000008152600401610e3f90612637565b60405180910390fd5b600073ffffffffffffffffffffffffffffffffffffffff168273ffffffffffffffffffffffffffffffffffffffff161415610eb8576040517f08c379a0000000000000000000000000000000000000000000000000000000008152600401610eaf906126c9565b60405180910390fd5b610ec3838383611352565b610ece600082610c3b565b6001600360008573ffffffffffffffffffffffffffffffffffffffff1673ffffffffffffffffffffffffffffffffffffffff1681526020019081526020016000206000828254610f1e91906126e9565b925050819055506001600360008473ffffffffffffffffffffffffffffffffffffffff1673ffffffffffffffffffffffffffffffffffffffff1681526020019081526020016000206000828254610f75919061271d565b92505081905550816002600083815260200190815260200160002060006101000a81548173ffffffffffffffffffffffffffffffffffffffff021916908373ffffffffffffffffffffffffffffffffffffffff160217905550808273ffffffffffffffffffffffffffffffffffffffff168473ffffffffffffffffffffffffffffffffffffffff167fddf252ad1be2c89b69c2b068fc378daa952ba7f163c4a11628f55a4df523b3ef60405160405180910390a4611034838383611357565b505050565b8173ffffffffffffffffffffffffffffffffffffffff168373ffffffffffffffffffffffffffffffffffffffff1614156110a8576040517f08c379a000000000000000000000000000000000000000000000000000000000815260040161109f906127bf565b60405180910390fd5b80600560008573ffffffffffffffffffffffffffffffffffffffff1673ffffffffffffffffffffffffffffffffffffffff16815260200190815260200160002060008473ffffffffffffffffffffffffffffffffffffffff1673ffffffffffffffffffffffffffffffffffffffff16815260200190815260200160002060006101000a81548160ff0219169083151502179055508173ffffffffffffffffffffffffffffffffffffffff168373ffffffffffffffffffffffffffffffffffffffff167f17307eab39ab6107e8899845ad3d59bd9653f200f220920489ca2b5937696c31836040516111999190611a03565b60405180910390a3505050565b6111b1848484610dd2565b6111bd8484848461135c565b6111fc576040517f08c379a00000000000000000000000000000000000000000000000000000000081526004016111f390612851565b60405180910390fd5b50505050565b606060405180602001604052806000815250905090565b606061122482610bc7565b611263576040517f08c379a000000000000000000000000000000000000000000000000000000000815260040161125a906128e3565b60405180910390fd5b600061126d611202565b9050600081511161128d57604051806020016040528060008152506112b8565b80611297846114f3565b6040516020016112a8929190612497565b6040516020818303038152906040525b915050919050565b6112da828260405180602001604052806000815250611654565b5050565b6112e782610bc7565b611326576040517f08c379a000000000000000000000000000000000000000000000000000000000815260040161131d90612975565b60405180910390fd5b8060066000848152602001908152602001600020908051906020019061134d9291906118ac565b505050565b505050565b505050565b600061137d8473ffffffffffffffffffffffffffffffffffffffff166116af565b156114e6578373ffffffffffffffffffffffffffffffffffffffff1663150b7a026113a6610c33565b8786866040518563ffffffff1660e01b81526004016113c894939291906129ea565b602060405180830381600087803b1580156113e257600080fd5b505af192505050801561141357506040513d601f19601f820116820180604052508101906114109190612a4b565b60015b611496573d8060008114611443576040519150601f19603f3d011682016040523d82523d6000602084013e611448565b606091505b5060008151141561148e576040517f08c379a000000000000000000000000000000000000000000000000000000000815260040161148590612851565b60405180910390fd5b805181602001fd5b63150b7a0260e01b7bffffffffffffffffffffffffffffffffffffffffffffffffffffffff1916817bffffffffffffffffffffffffffffffffffffffffffffffffffffffff1916149150506114eb565b600190505b949350505050565b6060600082141561153b576040518060400160405280600181526020017f3000000000000000000000000000000000000000000000000000000000000000815250905061164f565b600082905060005b6000821461156d578080611556906124ea565b915050600a826115669190612aa7565b9150611543565b60008167ffffffffffffffff81111561158957611588611d24565b5b6040519080825280601f01601f1916602001820160405280156115bb5781602001600182028036833780820191505090505b5090505b60008514611648576001826115d491906126e9565b9150600a856115e39190612ad8565b60306115ef919061271d565b60f81b81838151811061160557611604612b09565b5b60200101907effffffffffffffffffffffffffffffffffffffffffffffffffffffffffffff1916908160001a905350600a856116419190612aa7565b94506115bf565b8093505050505b919050565b61165e83836116d2565b61166b600084848461135c565b6116aa576040517f08c379a00000000000000000000000000000000000000000000000000000000081526004016116a190612851565b60405180910390fd5b505050565b6000808273ffffffffffffffffffffffffffffffffffffffff163b119050919050565b600073ffffffffffffffffffffffffffffffffffffffff168273ffffffffffffffffffffffffffffffffffffffff161415611742576040517f08c379a000000000000000000000000000000000000000000000000000000000815260040161173990612b84565b60405180910390fd5b61174b81610bc7565b1561178b576040517f08c379a000000000000000000000000000000000000000000000000000000000815260040161178290612bf0565b60405180910390fd5b61179760008383611352565b6001600360008473ffffffffffffffffffffffffffffffffffffffff1673ffffffffffffffffffffffffffffffffffffffff16815260200190815260200160002060008282546117e7919061271d565b92505081905550816002600083815260200190815260200160002060006101000a81548173ffffffffffffffffffffffffffffffffffffffff021916908373ffffffffffffffffffffffffffffffffffffffff160217905550808273ffffffffffffffffffffffffffffffffffffffff16600073ffffffffffffffffffffffffffffffffffffffff167fddf252ad1be2c89b69c2b068fc378daa952ba7f163c4a11628f55a4df523b3ef60405160405180910390a46118a860008383611357565b5050565b8280546118b89061202b565b90600052602060002090601f0160209004810192826118da5760008555611921565b82601f106118f357805160ff1916838001178555611921565b82800160010185558215611921579182015b82811115611920578251825591602001919060010190611905565b5b50905061192e9190611932565b5090565b5b8082111561194b576000816000905550600101611933565b5090565b6000604051905090565b600080fd5b600080fd5b60007fffffffff0000000000000000000000000000000000000000000000000000000082169050919050565b61199881611963565b81146119a357600080fd5b50565b6000813590506119b58161198f565b92915050565b6000602082840312156119d1576119d0611959565b5b60006119df848285016119a6565b91505092915050565b60008115159050919050565b6119fd816119e8565b82525050565b6000602082019050611a1860008301846119f4565b92915050565b600081519050919050565b600082825260208201905092915050565b60005b83811015611a58578082015181840152602081019050611a3d565b83811115611a67576000848401525b50505050565b6000601f19601f8301169050919050565b6000611a8982611a1e565b611a938185611a29565b9350611aa3818560208601611a3a565b611aac81611a6d565b840191505092915050565b60006020820190508181036000830152611ad18184611a7e565b905092915050565b6000819050919050565b611aec81611ad9565b8114611af757600080fd5b50565b600081359050611b0981611ae3565b92915050565b600060208284031215611b2557611b24611959565b5b6000611b3384828501611afa565b91505092915050565b600073ffffffffffffffffffffffffffffffffffffffff82169050919050565b6000611b6782611b3c565b9050919050565b611b7781611b5c565b82525050565b6000602082019050611b926000830184611b6e565b92915050565b611ba181611b5c565b8114611bac57600080fd5b50565b600081359050611bbe81611b98565b92915050565b60008060408385031215611bdb57611bda611959565b5b6000611be985828601611baf565b9250506020611bfa85828601611afa565b9150509250929050565b600080600060608486031215611c1d57611c1c611959565b5b6000611c2b86828701611baf565b9350506020611c3c86828701611baf565b9250506040611c4d86828701611afa565b9150509250925092565b600060208284031215611c6d57611c6c611959565b5b6000611c7b84828501611baf565b91505092915050565b611c8d81611ad9565b82525050565b6000602082019050611ca86000830184611c84565b92915050565b611cb7816119e8565b8114611cc257600080fd5b50565b600081359050611cd481611cae565b92915050565b60008060408385031215611cf157611cf0611959565b5b6000611cff85828601611baf565b9250506020611d1085828601611cc5565b9150509250929050565b600080fd5b600080fd5b7f4e487b7100000000000000000000000000000000000000000000000000000000600052604160045260246000fd5b611d5c82611a6d565b810181811067ffffffffffffffff82111715611d7b57611d7a611d24565b5b80604052505050565b6000611d8e61194f565b9050611d9a8282611d53565b919050565b600067ffffffffffffffff821115611dba57611db9611d24565b5b611dc382611a6d565b9050602081019050919050565b82818337600083830152505050565b6000611df2611ded84611d9f565b611d84565b905082815260208101848484011115611e0e57611e0d611d1f565b5b611e19848285611dd0565b509392505050565b600082601f830112611e3657611e35611d1a565b5b8135611e46848260208601611ddf565b91505092915050565b60008060008060808587031215611e6957611e68611959565b5b6000611e7787828801611baf565b9450506020611e8887828801611baf565b9350506040611e9987828801611afa565b925050606085013567ffffffffffffffff811115611eba57611eb961195e565b5b611ec687828801611e21565b91505092959194509250565b600067ffffffffffffffff821115611eed57611eec611d24565b5b611ef682611a6d565b9050602081019050919050565b6000611f16611f1184611ed2565b611d84565b905082815260208101848484011115611f3257611f31611d1f565b5b611f3d848285611dd0565b509392505050565b600082601f830112611f5a57611f59611d1a565b5b8135611f6a848260208601611f03565b91505092915050565b600060208284031215611f8957611f88611959565b5b600082013567ffffffffffffffff811115611fa757611fa661195e565b5b611fb384828501611f45565b91505092915050565b60008060408385031215611fd357611fd2611959565b5b6000611fe185828601611baf565b9250506020611ff285828601611baf565b9150509250929050565b7f4e487b7100000000000000000000000000000000000000000000000000000000600052602260045260246000fd5b6000600282049050600182168061204357607f821691505b6020821081141561205757612056611ffc565b5b50919050565b7f4552433732313a20617070726f76656420717565727920666f72206e6f6e657860008201527f697374656e7420746f6b656e0000000000000000000000000000000000000000602082015250565b60006120b9602c83611a29565b91506120c48261205d565b604082019050919050565b600060208201905081810360008301526120e8816120ac565b9050919050565b7f4552433732313a20617070726f76616c20746f2063757272656e74206f776e6560008201527f7200000000000000000000000000000000000000000000000000000000000000602082015250565b600061214b602183611a29565b9150612156826120ef565b604082019050919050565b6000602082019050818103600083015261217a8161213e565b9050919050565b7f4552433732313a20617070726f76652063616c6c6572206973206e6f74206f7760008201527f6e6572206e6f7220617070726f76656420666f7220616c6c0000000000000000602082015250565b60006121dd603883611a29565b91506121e882612181565b604082019050919050565b6000602082019050818103600083015261220c816121d0565b9050919050565b7f4552433732313a207472616e736665722063616c6c6572206973206e6f74206f60008201527f776e6572206e6f7220617070726f766564000000000000000000000000000000602082015250565b600061226f603183611a29565b915061227a82612213565b604082019050919050565b6000602082019050818103600083015261229e81612262565b9050919050565b7f4552433732313a206f776e657220717565727920666f72206e6f6e657869737460008201527f656e7420746f6b656e0000000000000000000000000000000000000000000000602082015250565b6000612301602983611a29565b915061230c826122a5565b604082019050919050565b60006020820190508181036000830152612330816122f4565b9050919050565b7f4552433732313a2062616c616e636520717565727920666f7220746865207a6560008201527f726f206164647265737300000000000000000000000000000000000000000000602082015250565b6000612393602a83611a29565b915061239e82612337565b604082019050919050565b600060208201905081810360008301526123c281612386565b9050919050565b7f45524337323155524953746f726167653a2055524920717565727920666f722060008201527f6e6f6e6578697374656e7420746f6b656e000000000000000000000000000000602082015250565b6000612425603183611a29565b9150612430826123c9565b604082019050919050565b6000602082019050818103600083015261245481612418565b9050919050565b600081905092915050565b600061247182611a1e565b61247b818561245b565b935061248b818560208601611a3a565b80840191505092915050565b60006124a38285612466565b91506124af8284612466565b91508190509392505050565b7f4e487b7100000000000000000000000000000000000000000000000000000000600052601160045260246000fd5b60006124f582611ad9565b91507fffffffffffffffffffffffffffffffffffffffffffffffffffffffffffffffff821415612528576125276124bb565b5b600182019050919050565b7f4552433732313a206f70657261746f7220717565727920666f72206e6f6e657860008201527f697374656e7420746f6b656e0000000000000000000000000000000000000000602082015250565b600061258f602c83611a29565b915061259a82612533565b604082019050919050565b600060208201905081810360008301526125be81612582565b9050919050565b7f4552433732313a207472616e736665722066726f6d20696e636f72726563742060008201527f6f776e6572000000000000000000000000000000000000000000000000000000602082015250565b6000612621602583611a29565b915061262c826125c5565b604082019050919050565b6000602082019050818103600083015261265081612614565b9050919050565b7f4552433732313a207472616e7366657220746f20746865207a65726f2061646460008201527f7265737300000000000000000000000000000000000000000000000000000000602082015250565b60006126b3602483611a29565b91506126be82612657565b604082019050919050565b600060208201905081810360008301526126e2816126a6565b9050919050565b60006126f482611ad9565b91506126ff83611ad9565b925082821015612712576127116124bb565b5b828203905092915050565b600061272882611ad9565b915061273383611ad9565b9250827fffffffffffffffffffffffffffffffffffffffffffffffffffffffffffffffff03821115612768576127676124bb565b5b828201905092915050565b7f4552433732313a20617070726f766520746f2063616c6c657200000000000000600082015250565b60006127a9601983611a29565b91506127b482612773565b602082019050919050565b600060208201905081810360008301526127d88161279c565b9050919050565b7f4552433732313a207472616e7366657220746f206e6f6e20455243373231526560008201527f63656976657220696d706c656d656e7465720000000000000000000000000000602082015250565b600061283b603283611a29565b9150612846826127df565b604082019050919050565b6000602082019050818103600083015261286a8161282e565b9050919050565b7f4552433732314d657461646174613a2055524920717565727920666f72206e6f60008201527f6e6578697374656e7420746f6b656e0000000000000000000000000000000000602082015250565b60006128cd602f83611a29565b91506128d882612871565b604082019050919050565b600060208201905081810360008301526128fc816128c0565b9050919050565b7f45524337323155524953746f726167653a2055524920736574206f66206e6f6e60008201527f6578697374656e7420746f6b656e000000000000000000000000000000000000602082015250565b600061295f602e83611a29565b915061296a82612903565b604082019050919050565b6000602082019050818103600083015261298e81612952565b9050919050565b600081519050919050565b600082825260208201905092915050565b60006129bc82612995565b6129c681856129a0565b93506129d6818560208601611a3a565b6129df81611a6d565b840191505092915050565b60006080820190506129ff6000830187611b6e565b612a0c6020830186611b6e565b612a196040830185611c84565b8181036060830152612a2b81846129b1565b905095945050505050565b600081519050612a458161198f565b92915050565b600060208284031215612a6157612a60611959565b5b6000612a6f84828501612a36565b91505092915050565b7f4e487b7100000000000000000000000000000000000000000000000000000000600052601260045260246000fd5b6000612ab282611ad9565b9150612abd83611ad9565b925082612acd57612acc612a78565b5b828204905092915050565b6000612ae382611ad9565b9150612aee83611ad9565b925082612afe57612afd612a78565b5b828206905092915050565b7f4e487b7100000000000000000000000000000000000000000000000000000000600052603260045260246000fd5b7f4552433732313a206d696e7420746f20746865207a65726f2061646472657373600082015250565b6000612b6e602083611a29565b9150612b7982612b38565b602082019050919050565b60006020820190508181036000830152612b9d81612b61565b9050919050565b7f4552433732313a20746f6b656e20616c7265616479206d696e74656400000000600082015250565b6000612bda601c83611a29565b9150612be582612ba4565b602082019050919050565b60006020820190508181036000830152612c0981612bcd565b905091905056fea26469706673582212205894411e3bd3b13f609394114935fbf2c98024d8e4e5c64b24479d546495572464736f6c63430008090033",
  "linkReferences": {},
  "deployedLinkReferences": {}
}